{
  "contractName": "FunnyAuction",
  "abi": [
    {
      "anonymous": false,
      "inputs": [
        {
          "indexed": true,
          "internalType": "address",
          "name": "owner",
          "type": "address"
        },
        {
          "indexed": true,
          "internalType": "address",
          "name": "spender",
          "type": "address"
        },
        {
          "indexed": false,
          "internalType": "uint256",
          "name": "value",
          "type": "uint256"
        }
      ],
      "name": "Approval",
      "type": "event"
    },
    {
      "anonymous": false,
      "inputs": [
        {
          "indexed": true,
          "internalType": "address",
          "name": "user",
          "type": "address"
        },
        {
          "indexed": false,
          "internalType": "uint256",
          "name": "value",
          "type": "uint256"
        }
      ],
      "name": "Claim",
      "type": "event"
    },
    {
      "anonymous": false,
      "inputs": [
        {
          "indexed": true,
          "internalType": "address",
          "name": "top1",
          "type": "address"
        },
        {
          "indexed": true,
          "internalType": "address",
          "name": "top2",
          "type": "address"
        },
        {
          "indexed": false,
          "internalType": "uint256",
          "name": "prize",
          "type": "uint256"
        }
      ],
      "name": "GameFinish",
      "type": "event"
    },
    {
      "anonymous": false,
      "inputs": [
        {
          "indexed": true,
          "internalType": "address",
          "name": "user",
          "type": "address"
        },
        {
          "indexed": false,
          "internalType": "uint256",
          "name": "value",
          "type": "uint256"
        }
      ],
      "name": "Offer",
      "type": "event"
    },
    {
      "anonymous": false,
      "inputs": [
        {
          "indexed": true,
          "internalType": "address",
          "name": "previousOwner",
          "type": "address"
        },
        {
          "indexed": true,
          "internalType": "address",
          "name": "newOwner",
          "type": "address"
        }
      ],
      "name": "OwnershipTransferred",
      "type": "event"
    },
    {
      "anonymous": false,
      "inputs": [
        {
          "indexed": true,
          "internalType": "address",
          "name": "user",
          "type": "address"
        },
        {
          "indexed": false,
          "internalType": "uint256",
          "name": "value",
          "type": "uint256"
        }
      ],
      "name": "Prize",
      "type": "event"
    },
    {
      "anonymous": false,
      "inputs": [
        {
          "indexed": true,
          "internalType": "address",
          "name": "from",
          "type": "address"
        },
        {
          "indexed": true,
          "internalType": "address",
          "name": "to",
          "type": "address"
        },
        {
          "indexed": false,
          "internalType": "uint256",
          "name": "value",
          "type": "uint256"
        }
      ],
      "name": "Transfer",
      "type": "event"
    },
    {
      "anonymous": false,
      "inputs": [
        {
          "indexed": true,
          "internalType": "address",
          "name": "user",
          "type": "address"
        },
        {
          "indexed": false,
          "internalType": "uint256",
          "name": "value",
          "type": "uint256"
        }
      ],
      "name": "Withdraw",
      "type": "event"
    },
    {
      "inputs": [
        {
          "internalType": "address",
          "name": "owner",
          "type": "address"
        },
        {
          "internalType": "address",
          "name": "spender",
          "type": "address"
        }
      ],
      "name": "allowance",
      "outputs": [
        {
          "internalType": "uint256",
          "name": "",
          "type": "uint256"
        }
      ],
      "stateMutability": "view",
      "type": "function",
      "constant": true
    },
    {
      "inputs": [
        {
          "internalType": "address",
          "name": "spender",
          "type": "address"
        },
        {
          "internalType": "uint256",
          "name": "amount",
          "type": "uint256"
        }
      ],
      "name": "approve",
      "outputs": [
        {
          "internalType": "bool",
          "name": "",
          "type": "bool"
        }
      ],
      "stateMutability": "nonpayable",
      "type": "function"
    },
    {
      "inputs": [
        {
          "internalType": "address",
          "name": "",
          "type": "address"
        }
      ],
      "name": "assetMap",
      "outputs": [
        {
          "internalType": "uint256",
          "name": "",
          "type": "uint256"
        }
      ],
      "stateMutability": "view",
      "type": "function",
      "constant": true
    },
    {
      "inputs": [
        {
          "internalType": "address",
          "name": "account",
          "type": "address"
        }
      ],
      "name": "balanceOf",
      "outputs": [
        {
          "internalType": "uint256",
          "name": "",
          "type": "uint256"
        }
      ],
      "stateMutability": "view",
      "type": "function",
      "constant": true
    },
    {
      "inputs": [
        {
          "internalType": "address",
          "name": "",
          "type": "address"
        }
      ],
      "name": "bidMap",
      "outputs": [
        {
          "internalType": "uint256",
          "name": "",
          "type": "uint256"
        }
      ],
      "stateMutability": "view",
      "type": "function",
      "constant": true
    },
    {
      "inputs": [],
      "name": "coldDownBlock",
      "outputs": [
        {
          "internalType": "uint256",
          "name": "",
          "type": "uint256"
        }
      ],
      "stateMutability": "view",
      "type": "function",
      "constant": true
    },
    {
      "inputs": [],
      "name": "confirmBlock",
      "outputs": [
        {
          "internalType": "uint256",
          "name": "",
          "type": "uint256"
        }
      ],
      "stateMutability": "view",
      "type": "function",
      "constant": true
    },
    {
      "inputs": [],
      "name": "currentBidPrice",
      "outputs": [
        {
          "internalType": "uint256",
          "name": "",
          "type": "uint256"
        }
      ],
      "stateMutability": "view",
      "type": "function",
      "constant": true
    },
    {
      "inputs": [],
      "name": "currentGoodValue",
      "outputs": [
        {
          "internalType": "uint256",
          "name": "",
          "type": "uint256"
        }
      ],
      "stateMutability": "view",
      "type": "function",
      "constant": true
    },
    {
      "inputs": [
        {
          "internalType": "uint256",
          "name": "",
          "type": "uint256"
        }
      ],
      "name": "currentPlayers",
      "outputs": [
        {
          "internalType": "address",
          "name": "",
          "type": "address"
        }
      ],
      "stateMutability": "view",
      "type": "function",
      "constant": true
    },
    {
      "inputs": [],
      "name": "decimals",
      "outputs": [
        {
          "internalType": "uint8",
          "name": "",
          "type": "uint8"
        }
      ],
      "stateMutability": "view",
      "type": "function",
      "constant": true
    },
    {
      "inputs": [
        {
          "internalType": "address",
          "name": "spender",
          "type": "address"
        },
        {
          "internalType": "uint256",
          "name": "subtractedValue",
          "type": "uint256"
        }
      ],
      "name": "decreaseAllowance",
      "outputs": [
        {
          "internalType": "bool",
          "name": "",
          "type": "bool"
        }
      ],
      "stateMutability": "nonpayable",
      "type": "function"
    },
    {
      "inputs": [],
      "name": "highestValue",
      "outputs": [
        {
          "internalType": "uint256",
          "name": "",
          "type": "uint256"
        }
      ],
      "stateMutability": "view",
      "type": "function",
      "constant": true
    },
    {
      "inputs": [
        {
          "internalType": "address",
          "name": "spender",
          "type": "address"
        },
        {
          "internalType": "uint256",
          "name": "addedValue",
          "type": "uint256"
        }
      ],
      "name": "increaseAllowance",
      "outputs": [
        {
          "internalType": "bool",
          "name": "",
          "type": "bool"
        }
      ],
      "stateMutability": "nonpayable",
      "type": "function"
    },
    {
      "inputs": [],
      "name": "lastOfferBlock",
      "outputs": [
        {
          "internalType": "uint256",
          "name": "",
          "type": "uint256"
        }
      ],
      "stateMutability": "view",
      "type": "function",
      "constant": true
    },
    {
      "inputs": [],
      "name": "liquidityPool",
      "outputs": [
        {
          "internalType": "uint256",
          "name": "",
          "type": "uint256"
        }
      ],
      "stateMutability": "view",
      "type": "function",
      "constant": true
    },
    {
      "inputs": [],
      "name": "name",
      "outputs": [
        {
          "internalType": "string",
          "name": "",
          "type": "string"
        }
      ],
      "stateMutability": "view",
      "type": "function",
      "constant": true
    },
    {
      "inputs": [],
      "name": "owner",
      "outputs": [
        {
          "internalType": "address",
          "name": "",
          "type": "address"
        }
      ],
      "stateMutability": "view",
      "type": "function",
      "constant": true
    },
    {
      "inputs": [],
      "name": "renounceOwnership",
      "outputs": [],
      "stateMutability": "nonpayable",
      "type": "function"
    },
    {
      "inputs": [],
      "name": "secondPlayer",
      "outputs": [
        {
          "internalType": "address",
          "name": "",
          "type": "address"
        }
      ],
      "stateMutability": "view",
      "type": "function",
      "constant": true
    },
    {
      "inputs": [],
      "name": "symbol",
      "outputs": [
        {
          "internalType": "string",
          "name": "",
          "type": "string"
        }
      ],
      "stateMutability": "view",
      "type": "function",
      "constant": true
    },
    {
      "inputs": [],
      "name": "topPlayer",
      "outputs": [
        {
          "internalType": "address payable",
          "name": "",
          "type": "address"
        }
      ],
      "stateMutability": "view",
      "type": "function",
      "constant": true
    },
    {
      "inputs": [],
      "name": "totalSupply",
      "outputs": [
        {
          "internalType": "uint256",
          "name": "",
          "type": "uint256"
        }
      ],
      "stateMutability": "view",
      "type": "function",
      "constant": true
    },
    {
      "inputs": [
        {
          "internalType": "address",
          "name": "recipient",
          "type": "address"
        },
        {
          "internalType": "uint256",
          "name": "amount",
          "type": "uint256"
        }
      ],
      "name": "transfer",
      "outputs": [
        {
          "internalType": "bool",
          "name": "",
          "type": "bool"
        }
      ],
      "stateMutability": "nonpayable",
      "type": "function"
    },
    {
      "inputs": [
        {
          "internalType": "address",
          "name": "sender",
          "type": "address"
        },
        {
          "internalType": "address",
          "name": "recipient",
          "type": "address"
        },
        {
          "internalType": "uint256",
          "name": "amount",
          "type": "uint256"
        }
      ],
      "name": "transferFrom",
      "outputs": [
        {
          "internalType": "bool",
          "name": "",
          "type": "bool"
        }
      ],
      "stateMutability": "nonpayable",
      "type": "function"
    },
    {
      "inputs": [
        {
          "internalType": "address",
          "name": "newOwner",
          "type": "address"
        }
      ],
      "name": "transferOwnership",
      "outputs": [],
      "stateMutability": "nonpayable",
      "type": "function"
    },
    {
      "inputs": [],
      "name": "waspToken",
      "outputs": [
        {
          "internalType": "address",
          "name": "",
          "type": "address"
        }
      ],
      "stateMutability": "view",
      "type": "function",
      "constant": true
    },
    {
      "stateMutability": "payable",
      "type": "receive",
      "payable": true
    },
    {
      "inputs": [],
      "name": "getStatus",
      "outputs": [
        {
          "internalType": "uint256",
          "name": "",
          "type": "uint256"
        }
      ],
      "stateMutability": "view",
      "type": "function",
      "constant": true
    },
    {
      "inputs": [
        {
          "internalType": "uint256",
          "name": "value",
          "type": "uint256"
        }
      ],
      "name": "offer",
      "outputs": [],
      "stateMutability": "payable",
      "type": "function",
      "payable": true
    },
    {
      "inputs": [],
      "name": "calcGoodsValue",
      "outputs": [
        {
          "internalType": "uint256",
          "name": "",
          "type": "uint256"
        }
      ],
      "stateMutability": "view",
      "type": "function",
      "constant": true
    },
    {
      "inputs": [],
      "name": "getPlayersInfo",
      "outputs": [
        {
          "internalType": "address[]",
          "name": "",
          "type": "address[]"
        },
        {
          "internalType": "uint256[]",
          "name": "",
          "type": "uint256[]"
        }
      ],
      "stateMutability": "view",
      "type": "function",
      "constant": true
    },
    {
      "inputs": [],
      "name": "claim",
      "outputs": [],
      "stateMutability": "nonpayable",
      "type": "function"
    },
    {
      "inputs": [],
      "name": "withdraw",
      "outputs": [],
      "stateMutability": "nonpayable",
      "type": "function"
    },
    {
      "inputs": [
        {
          "internalType": "uint256",
          "name": "_highestValue",
          "type": "uint256"
        },
        {
          "internalType": "uint256",
          "name": "_coldDownBlock",
          "type": "uint256"
        },
        {
          "internalType": "uint256",
          "name": "_confirmBlock",
          "type": "uint256"
        },
        {
          "internalType": "address",
          "name": "_waspToken",
          "type": "address"
        }
      ],
      "name": "config",
      "outputs": [],
      "stateMutability": "nonpayable",
      "type": "function"
    },
    {
      "inputs": [],
      "name": "settlement",
      "outputs": [],
      "stateMutability": "nonpayable",
      "type": "function"
    }
  ],
  "bytecode": "0x60806040523480156200001157600080fd5b506040518060400160405280601c81526020017f41756374696f6e204c697175696469747920506f6f6c20546f6b656e000000008152506040518060400160405280600381526020017f414c54000000000000000000000000000000000000000000000000000000000081525081600390805190602001906200009692919062000131565b508051620000ac90600490602084019062000131565b50506005805460ff19166012179055506000620000d16401000000006200012d810204565b6005805461010060a860020a031916610100600160a060020a03841690810291909117909155604051919250906000907f8be0079c531659141344cd1fd0a4f28419497f9722a3daafe3b4186f6b6457e0908290a350620001cd565b3390565b828054600181600116156101000203166002900490600052602060002090601f016020900481019282601f106200017457805160ff1916838001178555620001a4565b82800160010185558215620001a4579182015b82811115620001a457825182559160200191906001019062000187565b50620001b2929150620001b6565b5090565b5b80821115620001b25760008155600101620001b7565b61228180620001dd6000396000f3fe608060405260043610610225576000357c01000000000000000000000000000000000000000000000000000000009004806351160630116101355780638da5cb5b116100bd578063a834814d1161008c578063a834814d14610743578063a9059cbb14610788578063b8da82ea146107c1578063dd62ed3e146107d6578063f2fde38b1461081157610251565b80638da5cb5b146106cb57806395d89b41146106e05780639b87f644146106f5578063a457c2d71461070a57610251565b80636ebe71f8116101045780636ebe71f814610627578063703afc871461063c57806370a0823114610666578063715018a614610699578063761610fc146106ae57610251565b806351160630146105b557806356e9e79a146105ca5780636180712d146105fd578063665a11ca1461061257610251565b80632de63791116101b85780633bcf50ab116101875780633bcf50ab1461052e5780633ccfd60b146105615780634d101675146105765780634e69d5601461058b5780634e71d92d146105a057610251565b80632de63791146104a0578063313ce567146104b5578063387bdd98146104e057806339509351146104f557610251565b80631bc1e19a116101f45780631bc1e19a1461036957806323b872dd1461039a57806328477285146103dd5780632b1476851461048b57610251565b806306fdde0314610256578063095ea7b3146102e05780630b60f4cb1461032d57806318160ddd1461035457610251565b36610251576009546102379034610844565b6009556102426108a8565b600b5561024f33346108c5565b005b600080fd5b34801561026257600080fd5b5061026b6109b8565b6040805160208082528351818301528351919283929083019185019080838360005b838110156102a557818101518382015260200161028d565b50505050905090810190601f1680156102d25780820380516001836020036101000a031916815260200191505b509250505060405180910390f35b3480156102ec57600080fd5b506103196004803603604081101561030357600080fd5b50600160a060020a038135169060200135610a4e565b604080519115158252519081900360200190f35b34801561033957600080fd5b50610342610a6b565b60408051918252519081900360200190f35b34801561036057600080fd5b50610342610a71565b34801561037557600080fd5b5061037e610a77565b60408051600160a060020a039092168252519081900360200190f35b3480156103a657600080fd5b50610319600480360360608110156103bd57600080fd5b50600160a060020a03813581169160208101359091169060400135610a86565b3480156103e957600080fd5b506103f2610b0d565b604051808060200180602001838103835285818151815260200191508051906020019060200280838360005b8381101561043657818101518382015260200161041e565b50505050905001838103825284818151815260200191508051906020019060200280838360005b8381101561047557818101518382015260200161045d565b5050505090500194505050505060405180910390f35b34801561049757600080fd5b50610342610c6a565b3480156104ac57600080fd5b50610342610c70565b3480156104c157600080fd5b506104ca610c76565b6040805160ff9092168252519081900360200190f35b3480156104ec57600080fd5b506103426108a8565b34801561050157600080fd5b506103196004803603604081101561051857600080fd5b50600160a060020a038135169060200135610c7f565b34801561053a57600080fd5b506103426004803603602081101561055157600080fd5b5035600160a060020a0316610ccd565b34801561056d57600080fd5b5061024f610cdf565b34801561058257600080fd5b5061037e610de7565b34801561059757600080fd5b50610342610df6565b3480156105ac57600080fd5b5061024f610e41565b3480156105c157600080fd5b5061024f610f2e565b3480156105d657600080fd5b50610342600480360360208110156105ed57600080fd5b5035600160a060020a03166112b8565b34801561060957600080fd5b506103426112ca565b34801561061e57600080fd5b506103426112d0565b34801561063357600080fd5b5061037e6112d6565b34801561064857600080fd5b5061037e6004803603602081101561065f57600080fd5b50356112e5565b34801561067257600080fd5b506103426004803603602081101561068957600080fd5b5035600160a060020a031661130c565b3480156106a557600080fd5b5061024f611327565b61024f600480360360208110156106c457600080fd5b50356113f6565b3480156106d757600080fd5b5061037e61194f565b3480156106ec57600080fd5b5061026b611963565b34801561070157600080fd5b506103426119c4565b34801561071657600080fd5b506103196004803603604081101561072d57600080fd5b50600160a060020a0381351690602001356119ca565b34801561074f57600080fd5b5061024f6004803603608081101561076657600080fd5b5080359060208101359060408101359060600135600160a060020a0316611a32565b34801561079457600080fd5b50610319600480360360408110156107ab57600080fd5b50600160a060020a038135169060200135611ae1565b3480156107cd57600080fd5b50610342611af5565b3480156107e257600080fd5b50610342600480360360408110156107f957600080fd5b50600160a060020a0381358116916020013516611afb565b34801561081d57600080fd5b5061024f6004803603602081101561083457600080fd5b5035600160a060020a0316611b26565b6000828201838110156108a1576040805160e560020a62461bcd02815260206004820152601b60248201527f536166654d6174683a206164646974696f6e206f766572666c6f770000000000604482015290519081900360640190fd5b9392505050565b6000600654600954106108be57506006546108c2565b5060005b90565b600160a060020a038216610923576040805160e560020a62461bcd02815260206004820152601f60248201527f45524332303a206d696e7420746f20746865207a65726f206164647265737300604482015290519081900360640190fd5b61092f60008383611c54565b60025461093c9082610844565b600255600160a060020a0382166000908152602081905260409020546109629082610844565b600160a060020a0383166000818152602081815260408083209490945583518581529351929391927fddf252ad1be2c89b69c2b068fc378daa952ba7f163c4a11628f55a4df523b3ef9281900390910190a35050565b60038054604080516020601f6002600019610100600188161502019095169490940493840181900481028201810190925282815260609390929091830182828015610a445780601f10610a1957610100808354040283529160200191610a44565b820191906000526020600020905b815481529060010190602001808311610a2757829003601f168201915b5050505050905090565b6000610a62610a5b611c59565b8484611c5d565b50600192915050565b60075481565b60025490565b600e54600160a060020a031681565b6000610a93848484611d4f565b610b0384610a9f611c59565b610afe8560405180606001604052806028815260200161219560289139600160a060020a038a16600090815260016020526040812090610add611c59565b600160a060020a031681526020810191909152604001600020549190611eb0565b611c5d565b5060019392505050565b606080606060108054905067ffffffffffffffff81118015610b2e57600080fd5b50604051908082528060200260200182016040528015610b58578160200160208202803683370190505b5060105490915060609067ffffffffffffffff81118015610b7857600080fd5b50604051908082528060200260200182016040528015610ba2578160200160208202803683370190505b50905060005b601054811015610c605760108181548110610bbf57fe5b9060005260206000200160009054906101000a9004600160a060020a0316838281518110610be957fe5b6020026020010190600160a060020a03169081600160a060020a0316815250506011600060108381548110610c1a57fe5b6000918252602080832090910154600160a060020a031683528201929092526040019020548251839083908110610c4d57fe5b6020908102919091010152600101610ba8565b5090925090509091565b60065481565b600b5481565b60055460ff1690565b6000610a62610c8c611c59565b84610afe8560016000610c9d611c59565b600160a060020a03908116825260208083019390935260409182016000908120918c168152925290205490610844565b60126020526000908152604090205481565b6000610cea3361130c565b905060008111610d44576040805160e560020a62461bcd02815260206004820152600e60248201527f6e6f7420656e6f75676820414c54000000000000000000000000000000000000604482015290519081900360640190fd5b6000610d4e610a71565b826009540281610d5a57fe5b049050610d7281600954611f4a90919063ffffffff16565b600955610d7f3383611f8c565b604051339082156108fc029083906000818181858888f19350505050158015610dac573d6000803e3d6000fd5b5060408051828152905133917f884edad9ce6fa2440d8a54cc123490eb96d2768479d49ff9c7366125a9424364919081900360200190a25050565b600f54600160a060020a031681565b600a54600854600091430390811015610e135760029150506108c2565b6008548110158015610e2a57506007546008540181105b15610e395760019150506108c2565b600091505090565b33600090815260126020526040812080549190558015610f2b57600f54604080517fa9059cbb000000000000000000000000000000000000000000000000000000008152336004820152602481018490529051600160a060020a039092169163a9059cbb916044808201926020929091908290030181600087803b158015610ec857600080fd5b505af1158015610edc573d6000803e3d6000fd5b505050506040513d6020811015610ef257600080fd5b505060408051828152905133917f47cee97cb7acd717b3c0aa1435d004cd5b3c8c57d70dbceb4e4458bbd60e39d4919081900360200190a25b50565b6000610f38610df6565b90508015610f7a5760405160e560020a62461bcd0281526004018080602001828103825260248152602001806121716024913960400191505060405180910390fd5b60005b60105481101561122357600d5460108054600160a060020a039092169183908110610fa457fe5b600091825260209091200154600160a060020a0316141561111a57600b54600954610fce91611f4a565b600955600f54600d54600160a060020a0390811660009081526011602090815260408083205481517fa9059cbb0000000000000000000000000000000000000000000000000000000081526001600482015260248101919091529051939094169363a9059cbb9360448083019491928390030190829087803b15801561105357600080fd5b505af1158015611067573d6000803e3d6000fd5b505050506040513d602081101561107d57600080fd5b5050600d8054600160a060020a039081166000908152601160205260408082208290559254600b54935192169280156108fc02929091818181858888f193505050501580156110d0573d6000803e3d6000fd5b50600d54600b546040805191825251600160a060020a03909216917f99f08c98964929f60c884ba55e11ca00a382870dccf23f6bd0de1f4f25cec5039181900360200190a261121b565b6111a9601160006010848154811061112e57fe5b9060005260206000200160009054906101000a9004600160a060020a0316600160a060020a0316600160a060020a0316815260200190815260200160002054601260006010858154811061117e57fe5b6000918252602080832090910154600160a060020a0316835282019290925260400190205490610844565b60126000601084815481106111ba57fe5b6000918252602080832090910154600160a060020a03168352820192909252604001812091909155601080546011918391859081106111f557fe5b6000918252602080832090910154600160a060020a031683528201929092526040019020555b600101610f7d565b506112306010600061208b565b600e54600d54600b546040805191825251600160a060020a039384169392909216917fbb7959904aedacdae1b624e01b1539c5a2a45c43f246f0f61b9bf76ccd32b5309181900360200190a3600d805473ffffffffffffffffffffffffffffffffffffffff19908116909155600e805490911690556000600c556112b26108a8565b600b5550565b60116020526000908152604090205481565b600a5481565b60095481565b600d54600160a060020a031681565b601081815481106112f257fe5b600091825260209091200154600160a060020a0316905081565b600160a060020a031660009081526020819052604090205490565b61132f611c59565b6005546101009004600160a060020a03908116911614611399576040805160e560020a62461bcd02815260206004820181905260248201527f4f776e61626c653a2063616c6c6572206973206e6f7420746865206f776e6572604482015290519081900360640190fd5b6005546040516000916101009004600160a060020a0316907f8be0079c531659141344cd1fd0a4f28419497f9722a3daafe3b4186f6b6457e0908390a36005805474ffffffffffffffffffffffffffffffffffffffff0019169055565b6000611400610df6565b9050806001141561145b576040805160e560020a62461bcd02815260206004820152601260248201527f497420697320636f6c64696e6720646f776e0000000000000000000000000000604482015290519081900360640190fd5b670de0b6b3a76400008206156114bb576040805160e560020a62461bcd02815260206004820152601260248201527f4d75737420696e70757420696e74656765720000000000000000000000000000604482015290519081900360640190fd5b60008211611513576040805160e560020a62461bcd02815260206004820152601260248201527f4d757374206c6172676572207468616e20300000000000000000000000000000604482015290519081900360640190fd5b600f54604080517f70a0823100000000000000000000000000000000000000000000000000000000815233600482015290518492600160a060020a0316916370a08231916024808301926020929190829003018186803b15801561157657600080fd5b505afa15801561158a573d6000803e3d6000fd5b505050506040513d60208110156115a057600080fd5b50513360009081526011602090815260408083205460129092529091205401011015611616576040805160e560020a62461bcd02815260206004820152601160248201527f417373657473206e6f7420656e6f756768000000000000000000000000000000604482015290519081900360640190fd5b341561166c576040805160e560020a62461bcd02815260206004820152601760248201527f506c6561736520646f206e6f742073656e642057414e2e000000000000000000604482015290519081900360640190fd5b8061167d57611679610f2e565b5060025b806002141561194b57670de0b6b3a7640000600c54830310156116ea576040805160e560020a62461bcd02815260206004820152600d60248201527f507269636520746f6f206c6f7700000000000000000000000000000000000000604482015290519081900360640190fd5b336000908152601160205260409020548211611750576040805160e560020a62461bcd02815260206004820152601e60248201527f4e6577207072696365206d757374206c6172676572207468616e206f6c640000604482015290519081900360640190fd5b336000908152601160209081526040808320546012909252909120549083039081116117a557336000908152601260205260409020546117909082611f4a565b33600090815260126020526040902055611845565b600f54604080517f23b872dd000000000000000000000000000000000000000000000000000000008152336004820152306024820152604481018490529051600160a060020a03909216916323b872dd916064808201926020929091908290030181600087803b15801561181857600080fd5b505af115801561182c573d6000803e3d6000fd5b505050506040513d602081101561184257600080fd5b50505b336000908152601160205260409020546118a957601080546001810182556000919091527f1b6847dc741a1b0cd08d278845f9d819d87b734759afb55fe2de5cb82a9ae67201805473ffffffffffffffffffffffffffffffffffffffff1916331790555b336000908152601160205260409020546118c39082610844565b33600081815260116020908152604091829020849055600c93909355600d8054600e805473ffffffffffffffffffffffffffffffffffffffff19908116600160a060020a03841617909155168317905543600a558051868152905191927ff1f17f1a9edc53df960a0bec0dc86cb2bf5606c7826b3b8e701e70c91c28aa2a92918290030190a2505b5050565b6005546101009004600160a060020a031690565b60048054604080516020601f6002600019610100600188161502019095169490940493840181900481028201810190925282815260609390929091830182828015610a445780601f10610a1957610100808354040283529160200191610a44565b60085481565b6000610a626119d7611c59565b84610afe856040518060600160405280602581526020016122276025913960016000611a01611c59565b600160a060020a03908116825260208083019390935260409182016000908120918d16815292529020549190611eb0565b611a3a611c59565b6005546101009004600160a060020a03908116911614611aa4576040805160e560020a62461bcd02815260206004820181905260248201527f4f776e61626c653a2063616c6c6572206973206e6f7420746865206f776e6572604482015290519081900360640190fd5b600693909355600791909155600855600f805473ffffffffffffffffffffffffffffffffffffffff1916600160a060020a03909216919091179055565b6000610a62611aee611c59565b8484611d4f565b600c5481565b600160a060020a03918216600090815260016020908152604080832093909416825291909152205490565b611b2e611c59565b6005546101009004600160a060020a03908116911614611b98576040805160e560020a62461bcd02815260206004820181905260248201527f4f776e61626c653a2063616c6c6572206973206e6f7420746865206f776e6572604482015290519081900360640190fd5b600160a060020a038116611be05760405160e560020a62461bcd0281526004018080602001828103825260268152602001806121036026913960400191505060405180910390fd5b600554604051600160a060020a0380841692610100900416907f8be0079c531659141344cd1fd0a4f28419497f9722a3daafe3b4186f6b6457e090600090a360058054600160a060020a039092166101000274ffffffffffffffffffffffffffffffffffffffff0019909216919091179055565b505050565b3390565b600160a060020a038316611ca55760405160e560020a62461bcd0281526004018080602001828103825260248152602001806122036024913960400191505060405180910390fd5b600160a060020a038216611ced5760405160e560020a62461bcd0281526004018080602001828103825260228152602001806121296022913960400191505060405180910390fd5b600160a060020a03808416600081815260016020908152604080832094871680845294825291829020859055815185815291517f8c5be1e5ebec7d5bd14f71427d1e84f3dd0314c0f7b2291e5b200ac8c7c3b9259281900390910190a3505050565b600160a060020a038316611d975760405160e560020a62461bcd0281526004018080602001828103825260258152602001806121de6025913960400191505060405180910390fd5b600160a060020a038216611ddf5760405160e560020a62461bcd0281526004018080602001828103825260238152602001806120be6023913960400191505060405180910390fd5b611dea838383611c54565b611e278160405180606001604052806026815260200161214b60269139600160a060020a0386166000908152602081905260409020549190611eb0565b600160a060020a038085166000908152602081905260408082209390935590841681522054611e569082610844565b600160a060020a038084166000818152602081815260409182902094909455805185815290519193928716927fddf252ad1be2c89b69c2b068fc378daa952ba7f163c4a11628f55a4df523b3ef92918290030190a3505050565b60008184841115611f425760405160e560020a62461bcd0281526004018080602001828103825283818151815260200191508051906020019080838360005b83811015611f07578181015183820152602001611eef565b50505050905090810190601f168015611f345780820380516001836020036101000a031916815260200191505b509250505060405180910390fd5b505050900390565b60006108a183836040518060400160405280601e81526020017f536166654d6174683a207375627472616374696f6e206f766572666c6f770000815250611eb0565b600160a060020a038216611fd45760405160e560020a62461bcd0281526004018080602001828103825260218152602001806121bd6021913960400191505060405180910390fd5b611fe082600083611c54565b61201d816040518060600160405280602281526020016120e160229139600160a060020a0385166000908152602081905260409020549190611eb0565b600160a060020a0383166000908152602081905260409020556002546120439082611f4a565b600255604080518281529051600091600160a060020a038516917fddf252ad1be2c89b69c2b068fc378daa952ba7f163c4a11628f55a4df523b3ef9181900360200190a35050565b5080546000825590600052602060002090810190610f2b91905b808211156120b957600081556001016120a5565b509056fe45524332303a207472616e7366657220746f20746865207a65726f206164647265737345524332303a206275726e20616d6f756e7420657863656564732062616c616e63654f776e61626c653a206e6577206f776e657220697320746865207a65726f206164647265737345524332303a20617070726f766520746f20746865207a65726f206164647265737345524332303a207472616e7366657220616d6f756e7420657863656564732062616c616e6365736574746c656d656e74206d757374207761697420666f72206269642066696e7369682e45524332303a207472616e7366657220616d6f756e74206578636565647320616c6c6f77616e636545524332303a206275726e2066726f6d20746865207a65726f206164647265737345524332303a207472616e736665722066726f6d20746865207a65726f206164647265737345524332303a20617070726f76652066726f6d20746865207a65726f206164647265737345524332303a2064656372656173656420616c6c6f77616e63652062656c6f77207a65726fa2646970667358221220d0be5541020f73b8cc330543c8845d4d38ed5bdb64e49e7b77a826798877d4b464736f6c634300060c0033",
  "immutableReferences": {},
  "source": "// SPDX-License-Identifier: MIT\n\npragma solidity 0.6.12;\n\nimport \"@openzeppelin/contracts/token/ERC20/ERC20.sol\";\nimport \"@openzeppelin/contracts/token/ERC20/IERC20.sol\";\nimport \"@openzeppelin/contracts/access/Ownable.sol\";\n\ncontract FunnyAuction is ERC20(\"Auction Liquidity Pool Token\", \"ALT\"), Ownable {\n    using SafeMath for uint256;\n\n    uint256 public highestValue;\n    uint256 public coldDownBlock;\n    uint256 public confirmBlock;\n\n    uint256 public liquidityPool;\n    uint256 public lastOfferBlock;\n    uint256 public currentGoodValue;\n    uint256 public currentBidPrice;\n    address payable public topPlayer;\n    address public secondPlayer;\n    address public waspToken;\n\n    address[] public currentPlayers;\n\n    mapping(address => uint256) public bidMap;\n    mapping(address => uint256) public assetMap;\n\n    event Offer(address indexed user, uint256 value);\n\n    event Claim(address indexed user, uint256 value);\n\n    event Prize(address indexed user, uint256 value);\n\n    event Withdraw(address indexed user, uint256 value);\n\n    event GameFinish(address indexed top1, address indexed top2, uint256 prize);\n\n    /// @dev get current game status\n    /// 0:idle, 1:coldDown, 2:bidding\n    function getStatus() public view returns (uint256) {\n        uint256 past = block.number - lastOfferBlock;\n        if (past < confirmBlock) {\n            return 2;\n        }\n\n        if (past >= confirmBlock && past < (confirmBlock + coldDownBlock)) {\n            return 1;\n        }\n\n        return 0;\n    }\n\n    /// @dev offer a new price for goods.\n    function offer(uint256 value) external payable {\n        uint256 status = getStatus();\n        require(status != 1, \"It is colding down\");\n        require(value % 1 ether == 0, \"Must input integer\");\n        require(value > 0, \"Must larger than 0\");\n        require(\n            assetMap[msg.sender] + bidMap[msg.sender] + IERC20(waspToken).balanceOf(msg.sender) >= value,\n            \"Assets not enough\"\n        );\n        require(msg.value == 0, \"Please do not send WAN.\");\n\n        // last round finish\n        if (status == 0) {\n            settlement();\n            status = 2;\n        }\n\n        // biding\n        if (status == 2) {\n            require(value - currentBidPrice >= 1 ether, \"Price too low\");\n            require(\n                value > bidMap[msg.sender],\n                \"New price must larger than old\"\n            );\n            uint256 pay = value - bidMap[msg.sender];\n            // use wan from assets\n            if (assetMap[msg.sender] >= pay) {\n                assetMap[msg.sender] = assetMap[msg.sender].sub(pay);\n            } else {\n                IERC20(waspToken).transferFrom(msg.sender, address(this), pay);\n            }\n            \n            if (bidMap[msg.sender] == 0) {\n                currentPlayers.push(msg.sender);\n            }\n\n            bidMap[msg.sender] = bidMap[msg.sender].add(pay);\n            currentBidPrice = bidMap[msg.sender];\n            secondPlayer = topPlayer;\n            topPlayer = msg.sender;\n            lastOfferBlock = block.number;\n            emit Offer(msg.sender, value);\n        }\n    }\n\n    function calcGoodsValue() public view returns (uint256) {\n        if (liquidityPool >= highestValue) {\n            return highestValue;\n        }\n        return 0;\n    }\n\n    function getPlayersInfo()\n        public\n        view\n        returns (address[] memory, uint256[] memory)\n    {\n        address[] memory addrs = new address[](currentPlayers.length);\n        uint256[] memory bids = new uint256[](currentPlayers.length);\n\n        for (uint256 i = 0; i < currentPlayers.length; i++) {\n            addrs[i] = currentPlayers[i];\n            bids[i] = bidMap[currentPlayers[i]];\n        }\n\n        return (addrs, bids);\n    }\n\n    /// @dev claim user's wan back\n    function claim() external {\n        uint256 amount = assetMap[msg.sender];\n        assetMap[msg.sender] = 0;\n        if (amount > 0) {\n            IERC20(waspToken).transfer(msg.sender, amount);\n            emit Claim(msg.sender, amount);\n        }\n    }\n\n    /// @dev deposit wans get ALT (Auction Liquidity Pool Token)\n    receive() external payable {\n        liquidityPool = liquidityPool.add(msg.value);\n        currentGoodValue = calcGoodsValue();\n        _mint(msg.sender, msg.value);\n    }\n\n    /// @dev send ALT get wans back\n    function withdraw() external {\n        uint256 altBalance = balanceOf(msg.sender);\n        require(altBalance > 0, \"not enough ALT\");\n        uint256 payAmount = (liquidityPool * altBalance) / totalSupply();\n\n        liquidityPool = liquidityPool.sub(payAmount);\n        _burn(msg.sender, altBalance);\n        msg.sender.transfer(payAmount);\n        emit Withdraw(msg.sender, payAmount);\n    }\n\n    function config(\n        uint256 _highestValue,\n        uint256 _coldDownBlock,\n        uint256 _confirmBlock,\n        address _waspToken\n    ) external onlyOwner {\n        highestValue = _highestValue;\n        coldDownBlock = _coldDownBlock;\n        confirmBlock = _confirmBlock;\n        waspToken = _waspToken;\n    }\n\n    function settlement() public {\n        uint256 status = getStatus();\n        require(status == 0, \"settlement must wait for bid finsih.\");\n\n        for (uint256 i = 0; i < currentPlayers.length; i++) {\n            if (currentPlayers[i] == topPlayer) {\n                liquidityPool = liquidityPool.sub(currentGoodValue);\n                IERC20(waspToken).transfer(address(1), bidMap[topPlayer]); //burn;\n                bidMap[topPlayer] = 0;\n                topPlayer.transfer(currentGoodValue);\n                emit Prize(topPlayer, currentGoodValue);\n                continue;\n            }\n\n            assetMap[currentPlayers[i]] = assetMap[currentPlayers[i]].add(\n                bidMap[currentPlayers[i]]\n            );\n            bidMap[currentPlayers[i]] = 0;\n        }\n        // clear players\n        delete currentPlayers;\n        emit GameFinish(topPlayer, secondPlayer, currentGoodValue);\n        topPlayer = address(0);\n        secondPlayer = address(0);\n        currentBidPrice = 0;\n        currentGoodValue = calcGoodsValue();\n    }\n}\n",
  "sourcePath": "/Users/molin/workspace/dapp/funny-auction/funny-auction-contracts/contracts/FunnyAuction.sol",
  "compiler": {
    "name": "solc",
    "version": "0.6.12+commit.27d51765.Emscripten.clang"
  },
  "schemaVersion": "3.1.0",
  "updatedAt": "2020-12-15T03:15:55.445Z",
  "networkType": "ethereum",
  "devdoc": {
    "kind": "dev",
    "methods": {
      "allowance(address,address)": {
        "details": "See {IERC20-allowance}."
      },
      "approve(address,uint256)": {
        "details": "See {IERC20-approve}. Requirements: - `spender` cannot be the zero address."
      },
      "balanceOf(address)": {
        "details": "See {IERC20-balanceOf}."
      },
      "claim()": {
        "details": "claim user's wan back"
      },
      "decimals()": {
        "details": "Returns the number of decimals used to get its user representation. For example, if `decimals` equals `2`, a balance of `505` tokens should be displayed to a user as `5,05` (`505 / 10 ** 2`). Tokens usually opt for a value of 18, imitating the relationship between Ether and Wei. This is the value {ERC20} uses, unless {_setupDecimals} is called. NOTE: This information is only used for _display_ purposes: it in no way affects any of the arithmetic of the contract, including {IERC20-balanceOf} and {IERC20-transfer}."
      },
      "decreaseAllowance(address,uint256)": {
        "details": "Atomically decreases the allowance granted to `spender` by the caller. This is an alternative to {approve} that can be used as a mitigation for problems described in {IERC20-approve}. Emits an {Approval} event indicating the updated allowance. Requirements: - `spender` cannot be the zero address. - `spender` must have allowance for the caller of at least `subtractedValue`."
      },
      "getStatus()": {
        "details": "get current game status 0:idle, 1:coldDown, 2:bidding"
      },
      "increaseAllowance(address,uint256)": {
        "details": "Atomically increases the allowance granted to `spender` by the caller. This is an alternative to {approve} that can be used as a mitigation for problems described in {IERC20-approve}. Emits an {Approval} event indicating the updated allowance. Requirements: - `spender` cannot be the zero address."
      },
      "name()": {
        "details": "Returns the name of the token."
      },
      "offer(uint256)": {
        "details": "offer a new price for goods."
      },
      "owner()": {
        "details": "Returns the address of the current owner."
      },
      "renounceOwnership()": {
        "details": "Leaves the contract without owner. It will not be possible to call `onlyOwner` functions anymore. Can only be called by the current owner. NOTE: Renouncing ownership will leave the contract without an owner, thereby removing any functionality that is only available to the owner."
      },
      "symbol()": {
        "details": "Returns the symbol of the token, usually a shorter version of the name."
      },
      "totalSupply()": {
        "details": "See {IERC20-totalSupply}."
      },
      "transfer(address,uint256)": {
        "details": "See {IERC20-transfer}. Requirements: - `recipient` cannot be the zero address. - the caller must have a balance of at least `amount`."
      },
      "transferFrom(address,address,uint256)": {
        "details": "See {IERC20-transferFrom}. Emits an {Approval} event indicating the updated allowance. This is not required by the EIP. See the note at the beginning of {ERC20}; Requirements: - `sender` and `recipient` cannot be the zero address. - `sender` must have a balance of at least `amount`. - the caller must have allowance for ``sender``'s tokens of at least `amount`."
      },
      "transferOwnership(address)": {
        "details": "Transfers ownership of the contract to a new account (`newOwner`). Can only be called by the current owner."
      },
      "withdraw()": {
        "details": "send ALT get wans back"
      }
    },
    "version": 1
  },
  "userdoc": {
    "kind": "user",
    "methods": {},
    "version": 1
  }
}