{
  "contractName": "FunnyAuction",
  "abi": [
    {
      "anonymous": false,
      "inputs": [
        {
          "indexed": true,
          "internalType": "address",
          "name": "owner",
          "type": "address"
        },
        {
          "indexed": true,
          "internalType": "address",
          "name": "spender",
          "type": "address"
        },
        {
          "indexed": false,
          "internalType": "uint256",
          "name": "value",
          "type": "uint256"
        }
      ],
      "name": "Approval",
      "type": "event"
    },
    {
      "anonymous": false,
      "inputs": [
        {
          "indexed": true,
          "internalType": "address",
          "name": "user",
          "type": "address"
        },
        {
          "indexed": false,
          "internalType": "uint256",
          "name": "value",
          "type": "uint256"
        }
      ],
      "name": "Claim",
      "type": "event"
    },
    {
      "anonymous": false,
      "inputs": [
        {
          "indexed": true,
          "internalType": "address",
          "name": "top1",
          "type": "address"
        },
        {
          "indexed": true,
          "internalType": "address",
          "name": "top2",
          "type": "address"
        },
        {
          "indexed": false,
          "internalType": "uint256",
          "name": "prize",
          "type": "uint256"
        }
      ],
      "name": "GameFinish",
      "type": "event"
    },
    {
      "anonymous": false,
      "inputs": [
        {
          "indexed": true,
          "internalType": "address",
          "name": "user",
          "type": "address"
        },
        {
          "indexed": false,
          "internalType": "uint256",
          "name": "value",
          "type": "uint256"
        }
      ],
      "name": "Offer",
      "type": "event"
    },
    {
      "anonymous": false,
      "inputs": [
        {
          "indexed": true,
          "internalType": "address",
          "name": "previousOwner",
          "type": "address"
        },
        {
          "indexed": true,
          "internalType": "address",
          "name": "newOwner",
          "type": "address"
        }
      ],
      "name": "OwnershipTransferred",
      "type": "event"
    },
    {
      "anonymous": false,
      "inputs": [
        {
          "indexed": true,
          "internalType": "address",
          "name": "user",
          "type": "address"
        },
        {
          "indexed": false,
          "internalType": "uint256",
          "name": "value",
          "type": "uint256"
        }
      ],
      "name": "Prize",
      "type": "event"
    },
    {
      "anonymous": false,
      "inputs": [
        {
          "indexed": true,
          "internalType": "address",
          "name": "from",
          "type": "address"
        },
        {
          "indexed": true,
          "internalType": "address",
          "name": "to",
          "type": "address"
        },
        {
          "indexed": false,
          "internalType": "uint256",
          "name": "value",
          "type": "uint256"
        }
      ],
      "name": "Transfer",
      "type": "event"
    },
    {
      "anonymous": false,
      "inputs": [
        {
          "indexed": true,
          "internalType": "address",
          "name": "user",
          "type": "address"
        },
        {
          "indexed": false,
          "internalType": "uint256",
          "name": "value",
          "type": "uint256"
        }
      ],
      "name": "Withdraw",
      "type": "event"
    },
    {
      "inputs": [
        {
          "internalType": "address",
          "name": "owner",
          "type": "address"
        },
        {
          "internalType": "address",
          "name": "spender",
          "type": "address"
        }
      ],
      "name": "allowance",
      "outputs": [
        {
          "internalType": "uint256",
          "name": "",
          "type": "uint256"
        }
      ],
      "stateMutability": "view",
      "type": "function"
    },
    {
      "inputs": [
        {
          "internalType": "address",
          "name": "spender",
          "type": "address"
        },
        {
          "internalType": "uint256",
          "name": "amount",
          "type": "uint256"
        }
      ],
      "name": "approve",
      "outputs": [
        {
          "internalType": "bool",
          "name": "",
          "type": "bool"
        }
      ],
      "stateMutability": "nonpayable",
      "type": "function"
    },
    {
      "inputs": [
        {
          "internalType": "address",
          "name": "",
          "type": "address"
        }
      ],
      "name": "assetMap",
      "outputs": [
        {
          "internalType": "uint256",
          "name": "",
          "type": "uint256"
        }
      ],
      "stateMutability": "view",
      "type": "function"
    },
    {
      "inputs": [
        {
          "internalType": "address",
          "name": "account",
          "type": "address"
        }
      ],
      "name": "balanceOf",
      "outputs": [
        {
          "internalType": "uint256",
          "name": "",
          "type": "uint256"
        }
      ],
      "stateMutability": "view",
      "type": "function"
    },
    {
      "inputs": [
        {
          "internalType": "address",
          "name": "",
          "type": "address"
        }
      ],
      "name": "bidMap",
      "outputs": [
        {
          "internalType": "uint256",
          "name": "",
          "type": "uint256"
        }
      ],
      "stateMutability": "view",
      "type": "function"
    },
    {
      "inputs": [],
      "name": "coldDownBlock",
      "outputs": [
        {
          "internalType": "uint256",
          "name": "",
          "type": "uint256"
        }
      ],
      "stateMutability": "view",
      "type": "function"
    },
    {
      "inputs": [],
      "name": "confirmBlock",
      "outputs": [
        {
          "internalType": "uint256",
          "name": "",
          "type": "uint256"
        }
      ],
      "stateMutability": "view",
      "type": "function"
    },
    {
      "inputs": [],
      "name": "currentBidPrice",
      "outputs": [
        {
          "internalType": "uint256",
          "name": "",
          "type": "uint256"
        }
      ],
      "stateMutability": "view",
      "type": "function"
    },
    {
      "inputs": [],
      "name": "currentGoodValue",
      "outputs": [
        {
          "internalType": "uint256",
          "name": "",
          "type": "uint256"
        }
      ],
      "stateMutability": "view",
      "type": "function"
    },
    {
      "inputs": [
        {
          "internalType": "uint256",
          "name": "",
          "type": "uint256"
        }
      ],
      "name": "currentPlayers",
      "outputs": [
        {
          "internalType": "address",
          "name": "",
          "type": "address"
        }
      ],
      "stateMutability": "view",
      "type": "function"
    },
    {
      "inputs": [],
      "name": "decimals",
      "outputs": [
        {
          "internalType": "uint8",
          "name": "",
          "type": "uint8"
        }
      ],
      "stateMutability": "view",
      "type": "function"
    },
    {
      "inputs": [
        {
          "internalType": "address",
          "name": "spender",
          "type": "address"
        },
        {
          "internalType": "uint256",
          "name": "subtractedValue",
          "type": "uint256"
        }
      ],
      "name": "decreaseAllowance",
      "outputs": [
        {
          "internalType": "bool",
          "name": "",
          "type": "bool"
        }
      ],
      "stateMutability": "nonpayable",
      "type": "function"
    },
    {
      "inputs": [],
      "name": "goodsToken",
      "outputs": [
        {
          "internalType": "address",
          "name": "",
          "type": "address"
        }
      ],
      "stateMutability": "view",
      "type": "function"
    },
    {
      "inputs": [],
      "name": "highestValue",
      "outputs": [
        {
          "internalType": "uint256",
          "name": "",
          "type": "uint256"
        }
      ],
      "stateMutability": "view",
      "type": "function"
    },
    {
      "inputs": [
        {
          "internalType": "address",
          "name": "spender",
          "type": "address"
        },
        {
          "internalType": "uint256",
          "name": "addedValue",
          "type": "uint256"
        }
      ],
      "name": "increaseAllowance",
      "outputs": [
        {
          "internalType": "bool",
          "name": "",
          "type": "bool"
        }
      ],
      "stateMutability": "nonpayable",
      "type": "function"
    },
    {
      "inputs": [],
      "name": "lastOfferBlock",
      "outputs": [
        {
          "internalType": "uint256",
          "name": "",
          "type": "uint256"
        }
      ],
      "stateMutability": "view",
      "type": "function"
    },
    {
      "inputs": [],
      "name": "liquidityPool",
      "outputs": [
        {
          "internalType": "uint256",
          "name": "",
          "type": "uint256"
        }
      ],
      "stateMutability": "view",
      "type": "function"
    },
    {
      "inputs": [],
      "name": "name",
      "outputs": [
        {
          "internalType": "string",
          "name": "",
          "type": "string"
        }
      ],
      "stateMutability": "view",
      "type": "function"
    },
    {
      "inputs": [],
      "name": "owner",
      "outputs": [
        {
          "internalType": "address",
          "name": "",
          "type": "address"
        }
      ],
      "stateMutability": "view",
      "type": "function"
    },
    {
      "inputs": [],
      "name": "renounceOwnership",
      "outputs": [],
      "stateMutability": "nonpayable",
      "type": "function"
    },
    {
      "inputs": [],
      "name": "secondPlayer",
      "outputs": [
        {
          "internalType": "address",
          "name": "",
          "type": "address"
        }
      ],
      "stateMutability": "view",
      "type": "function"
    },
    {
      "inputs": [],
      "name": "symbol",
      "outputs": [
        {
          "internalType": "string",
          "name": "",
          "type": "string"
        }
      ],
      "stateMutability": "view",
      "type": "function"
    },
    {
      "inputs": [],
      "name": "topPlayer",
      "outputs": [
        {
          "internalType": "address payable",
          "name": "",
          "type": "address"
        }
      ],
      "stateMutability": "view",
      "type": "function"
    },
    {
      "inputs": [],
      "name": "totalSupply",
      "outputs": [
        {
          "internalType": "uint256",
          "name": "",
          "type": "uint256"
        }
      ],
      "stateMutability": "view",
      "type": "function"
    },
    {
      "inputs": [
        {
          "internalType": "address",
          "name": "recipient",
          "type": "address"
        },
        {
          "internalType": "uint256",
          "name": "amount",
          "type": "uint256"
        }
      ],
      "name": "transfer",
      "outputs": [
        {
          "internalType": "bool",
          "name": "",
          "type": "bool"
        }
      ],
      "stateMutability": "nonpayable",
      "type": "function"
    },
    {
      "inputs": [
        {
          "internalType": "address",
          "name": "sender",
          "type": "address"
        },
        {
          "internalType": "address",
          "name": "recipient",
          "type": "address"
        },
        {
          "internalType": "uint256",
          "name": "amount",
          "type": "uint256"
        }
      ],
      "name": "transferFrom",
      "outputs": [
        {
          "internalType": "bool",
          "name": "",
          "type": "bool"
        }
      ],
      "stateMutability": "nonpayable",
      "type": "function"
    },
    {
      "inputs": [
        {
          "internalType": "address",
          "name": "newOwner",
          "type": "address"
        }
      ],
      "name": "transferOwnership",
      "outputs": [],
      "stateMutability": "nonpayable",
      "type": "function"
    },
    {
      "inputs": [],
      "name": "waspToken",
      "outputs": [
        {
          "internalType": "address",
          "name": "",
          "type": "address"
        }
      ],
      "stateMutability": "view",
      "type": "function"
    },
    {
      "inputs": [],
      "name": "getStatus",
      "outputs": [
        {
          "internalType": "uint256",
          "name": "",
          "type": "uint256"
        }
      ],
      "stateMutability": "view",
      "type": "function"
    },
    {
      "inputs": [
        {
          "internalType": "uint256",
          "name": "value",
          "type": "uint256"
        }
      ],
      "name": "offer",
      "outputs": [],
      "stateMutability": "payable",
      "type": "function"
    },
    {
      "inputs": [],
      "name": "calcGoodsValue",
      "outputs": [
        {
          "internalType": "uint256",
          "name": "",
          "type": "uint256"
        }
      ],
      "stateMutability": "view",
      "type": "function"
    },
    {
      "inputs": [],
      "name": "getPlayersInfo",
      "outputs": [
        {
          "internalType": "address[]",
          "name": "",
          "type": "address[]"
        },
        {
          "internalType": "uint256[]",
          "name": "",
          "type": "uint256[]"
        }
      ],
      "stateMutability": "view",
      "type": "function"
    },
    {
      "inputs": [],
      "name": "claim",
      "outputs": [],
      "stateMutability": "nonpayable",
      "type": "function"
    },
    {
      "inputs": [
        {
          "internalType": "uint256",
          "name": "amount",
          "type": "uint256"
        }
      ],
      "name": "deposit",
      "outputs": [],
      "stateMutability": "nonpayable",
      "type": "function"
    },
    {
      "inputs": [],
      "name": "withdraw",
      "outputs": [],
      "stateMutability": "nonpayable",
      "type": "function"
    },
    {
      "inputs": [
        {
          "internalType": "uint256",
          "name": "_highestValue",
          "type": "uint256"
        },
        {
          "internalType": "uint256",
          "name": "_coldDownBlock",
          "type": "uint256"
        },
        {
          "internalType": "uint256",
          "name": "_confirmBlock",
          "type": "uint256"
        },
        {
          "internalType": "address",
          "name": "_waspToken",
          "type": "address"
        },
        {
          "internalType": "address",
          "name": "_goodsToken",
          "type": "address"
        }
      ],
      "name": "config",
      "outputs": [],
      "stateMutability": "nonpayable",
      "type": "function"
    },
    {
      "inputs": [],
      "name": "settlement",
      "outputs": [],
      "stateMutability": "nonpayable",
      "type": "function"
    }
  ],
  "bytecode": "0x60806040523480156200001157600080fd5b506040518060400160405280601c81526020017f41756374696f6e204c697175696469747920506f6f6c20546f6b656e000000008152506040518060400160405280600381526020017f414c54000000000000000000000000000000000000000000000000000000000081525081600390805190602001906200009692919062000131565b508051620000ac90600490602084019062000131565b50506005805460ff19166012179055506000620000d16401000000006200012d810204565b6005805461010060a860020a031916610100600160a060020a03841690810291909117909155604051919250906000907f8be0079c531659141344cd1fd0a4f28419497f9722a3daafe3b4186f6b6457e0908290a350620001cd565b3390565b828054600181600116156101000203166002900490600052602060002090601f016020900481019282601f106200017457805160ff1916838001178555620001a4565b82800160010185558215620001a4579182015b82811115620001a457825182559160200191906001019062000187565b50620001b2929150620001b6565b5090565b5b80821115620001b25760008155600101620001b7565b61240580620001dd6000396000f3fe608060405260043610610237576000357c01000000000000000000000000000000000000000000000000000000009004806351160630116101405780638da5cb5b116100c8578063a9059cbb1161008c578063a9059cbb1461078d578063b6b55f25146107c6578063b8da82ea146107f0578063dd62ed3e14610805578063f2fde38b1461084057610237565b80638da5cb5b1461070057806395d89b41146107155780639b67b4b61461072a5780639b87f6441461073f578063a457c2d71461075457610237565b80636ebe71f81161010f5780636ebe71f81461065c578063703afc871461067157806370a082311461069b578063715018a6146106ce578063761610fc146106e357610237565b806351160630146105ea57806356e9e79a146105ff5780636180712d14610632578063665a11ca1461064757610237565b80632de63791116101c35780633bcf50ab116101925780633bcf50ab146105635780633ccfd60b146105965780634d101675146105ab5780634e69d560146105c05780634e71d92d146105d557610237565b80632de63791146104d5578063313ce567146104ea578063387bdd9814610515578063395093511461052a57610237565b80631a8f84f91161020a5780631a8f84f91461034f5780631bc1e19a1461039e57806323b872dd146103cf57806328477285146104125780632b147685146104c057610237565b806306fdde031461023c578063095ea7b3146102c65780630b60f4cb1461031357806318160ddd1461033a575b600080fd5b34801561024857600080fd5b50610251610873565b6040805160208082528351818301528351919283929083019185019080838360005b8381101561028b578181015183820152602001610273565b50505050905090810190601f1680156102b85780820380516001836020036101000a031916815260200191505b509250505060405180910390f35b3480156102d257600080fd5b506102ff600480360360408110156102e957600080fd5b50600160a060020a03813516906020013561090a565b604080519115158252519081900360200190f35b34801561031f57600080fd5b50610328610927565b60408051918252519081900360200190f35b34801561034657600080fd5b5061032861092d565b34801561035b57600080fd5b5061039c600480360360a081101561037257600080fd5b50803590602081013590604081013590600160a060020a0360608201358116916080013516610933565b005b3480156103aa57600080fd5b506103b36109ef565b60408051600160a060020a039092168252519081900360200190f35b3480156103db57600080fd5b506102ff600480360360608110156103f257600080fd5b50600160a060020a038135811691602081013590911690604001356109fe565b34801561041e57600080fd5b50610427610a85565b604051808060200180602001838103835285818151815260200191508051906020019060200280838360005b8381101561046b578181015183820152602001610453565b50505050905001838103825284818151815260200191508051906020019060200280838360005b838110156104aa578181015183820152602001610492565b5050505090500194505050505060405180910390f35b3480156104cc57600080fd5b50610328610be2565b3480156104e157600080fd5b50610328610be8565b3480156104f657600080fd5b506104ff610bee565b6040805160ff9092168252519081900360200190f35b34801561052157600080fd5b50610328610bf7565b34801561053657600080fd5b506102ff6004803603604081101561054d57600080fd5b50600160a060020a038135169060200135610c13565b34801561056f57600080fd5b506103286004803603602081101561058657600080fd5b5035600160a060020a0316610c61565b3480156105a257600080fd5b5061039c610c73565b3480156105b757600080fd5b506103b3610dd0565b3480156105cc57600080fd5b50610328610ddf565b3480156105e157600080fd5b5061039c610e2a565b3480156105f657600080fd5b5061039c610f01565b34801561060b57600080fd5b506103286004803603602081101561062257600080fd5b5035600160a060020a03166112c0565b34801561063e57600080fd5b506103286112d2565b34801561065357600080fd5b506103286112d8565b34801561066857600080fd5b506103b36112de565b34801561067d57600080fd5b506103b36004803603602081101561069457600080fd5b50356112ed565b3480156106a757600080fd5b50610328600480360360208110156106be57600080fd5b5035600160a060020a0316611314565b3480156106da57600080fd5b5061039c61132f565b61039c600480360360208110156106f957600080fd5b50356113fe565b34801561070c57600080fd5b506103b3611957565b34801561072157600080fd5b5061025161196b565b34801561073657600080fd5b506103b36119cc565b34801561074b57600080fd5b506103286119db565b34801561076057600080fd5b506102ff6004803603604081101561077757600080fd5b50600160a060020a0381351690602001356119e1565b34801561079957600080fd5b506102ff600480360360408110156107b057600080fd5b50600160a060020a038135169060200135611a49565b3480156107d257600080fd5b5061039c600480360360208110156107e957600080fd5b5035611a5d565b3480156107fc57600080fd5b50610328611b22565b34801561081157600080fd5b506103286004803603604081101561082857600080fd5b50600160a060020a0381358116916020013516611b28565b34801561084c57600080fd5b5061039c6004803603602081101561086357600080fd5b5035600160a060020a0316611b53565b60038054604080516020601f60026000196101006001881615020190951694909404938401819004810282018101909252828152606093909290918301828280156108ff5780601f106108d4576101008083540402835291602001916108ff565b820191906000526020600020905b8154815290600101906020018083116108e257829003601f168201915b505050505090505b90565b600061091e610917611c81565b8484611c85565b50600192915050565b60075481565b60025490565b61093b611c81565b6005546101009004600160a060020a039081169116146109a5576040805160e560020a62461bcd02815260206004820181905260248201527f4f776e61626c653a2063616c6c6572206973206e6f7420746865206f776e6572604482015290519081900360640190fd5b600694909455600792909255600855600f8054600160a060020a0392831673ffffffffffffffffffffffffffffffffffffffff199182161790915560108054929093169116179055565b600e54600160a060020a031681565b6000610a0b848484611d77565b610a7b84610a17611c81565b610a768560405180606001604052806028815260200161231960289139600160a060020a038a16600090815260016020526040812090610a55611c81565b600160a060020a031681526020810191909152604001600020549190611ed8565b611c85565b5060019392505050565b606080606060118054905067ffffffffffffffff81118015610aa657600080fd5b50604051908082528060200260200182016040528015610ad0578160200160208202803683370190505b5060115490915060609067ffffffffffffffff81118015610af057600080fd5b50604051908082528060200260200182016040528015610b1a578160200160208202803683370190505b50905060005b601154811015610bd85760118181548110610b3757fe5b9060005260206000200160009054906101000a9004600160a060020a0316838281518110610b6157fe5b6020026020010190600160a060020a03169081600160a060020a0316815250506012600060118381548110610b9257fe5b6000918252602080832090910154600160a060020a031683528201929092526040019020548251839083908110610bc557fe5b6020908102919091010152600101610b20565b5090925090509091565b60065481565b600b5481565b60055460ff1690565b600060065460095410610c0d5750600654610907565b50600090565b600061091e610c20611c81565b84610a768560016000610c31611c81565b600160a060020a03908116825260208083019390935260409182016000908120918c168152925290205490611f72565b60136020526000908152604090205481565b6000610c7e33611314565b905060008111610cd8576040805160e560020a62461bcd02815260206004820152600e60248201527f6e6f7420656e6f75676820414c54000000000000000000000000000000000000604482015290519081900360640190fd5b6000610ce261092d565b826009540281610cee57fe5b049050610d0681600954611fd690919063ffffffff16565b600955610d133383612018565b6010546040805160e060020a63a9059cbb028152336004820152602481018490529051600160a060020a039092169163a9059cbb916044808201926020929091908290030181600087803b158015610d6a57600080fd5b505af1158015610d7e573d6000803e3d6000fd5b505050506040513d6020811015610d9457600080fd5b505060408051828152905133917f884edad9ce6fa2440d8a54cc123490eb96d2768479d49ff9c7366125a9424364919081900360200190a25050565b600f54600160a060020a031681565b600a54600854600091430390811015610dfc576002915050610907565b6008548110158015610e1357506007546008540181105b15610e22576001915050610907565b600091505090565b33600090815260136020526040812080549190558015610efe57600f546040805160e060020a63a9059cbb028152336004820152602481018490529051600160a060020a039092169163a9059cbb916044808201926020929091908290030181600087803b158015610e9b57600080fd5b505af1158015610eaf573d6000803e3d6000fd5b505050506040513d6020811015610ec557600080fd5b505060408051828152905133917f47cee97cb7acd717b3c0aa1435d004cd5b3c8c57d70dbceb4e4458bbd60e39d4919081900360200190a25b50565b6000610f0b610ddf565b90508015610f4d5760405160e560020a62461bcd0281526004018080602001828103825260248152602001806122f56024913960400191505060405180910390fd5b60005b60115481101561122b57600d5460118054600160a060020a039092169183908110610f7757fe5b600091825260209091200154600160a060020a0316141561112257600b54600954610fa191611fd6565b600955600f54600d54600160a060020a03908116600090815260126020908152604080832054815160e060020a63a9059cbb0281526001600482015260248101919091529051939094169363a9059cbb9360448083019491928390030190829087803b15801561101057600080fd5b505af1158015611024573d6000803e3d6000fd5b505050506040513d602081101561103a57600080fd5b5050600d8054600160a060020a0390811660009081526012602090815260408083208390556010549454600b54825160e060020a63a9059cbb028152918616600483015260248201529051949093169363a9059cbb93604480820194918390030190829087803b1580156110ad57600080fd5b505af11580156110c1573d6000803e3d6000fd5b505050506040513d60208110156110d757600080fd5b5050600d54600b546040805191825251600160a060020a03909216917f99f08c98964929f60c884ba55e11ca00a382870dccf23f6bd0de1f4f25cec5039181900360200190a2611223565b6111b1601260006011848154811061113657fe5b9060005260206000200160009054906101000a9004600160a060020a0316600160a060020a0316600160a060020a0316815260200190815260200160002054601360006011858154811061118657fe5b6000918252602080832090910154600160a060020a0316835282019290925260400190205490611f72565b60136000601184815481106111c257fe5b6000918252602080832090910154600160a060020a03168352820192909252604001812091909155601180546012918391859081106111fd57fe5b6000918252602080832090910154600160a060020a031683528201929092526040019020555b600101610f50565b506112386011600061220f565b600e54600d54600b546040805191825251600160a060020a039384169392909216917fbb7959904aedacdae1b624e01b1539c5a2a45c43f246f0f61b9bf76ccd32b5309181900360200190a3600d805473ffffffffffffffffffffffffffffffffffffffff19908116909155600e805490911690556000600c556112ba610bf7565b600b5550565b60126020526000908152604090205481565b600a5481565b60095481565b600d54600160a060020a031681565b601181815481106112fa57fe5b600091825260209091200154600160a060020a0316905081565b600160a060020a031660009081526020819052604090205490565b611337611c81565b6005546101009004600160a060020a039081169116146113a1576040805160e560020a62461bcd02815260206004820181905260248201527f4f776e61626c653a2063616c6c6572206973206e6f7420746865206f776e6572604482015290519081900360640190fd5b6005546040516000916101009004600160a060020a0316907f8be0079c531659141344cd1fd0a4f28419497f9722a3daafe3b4186f6b6457e0908390a36005805474ffffffffffffffffffffffffffffffffffffffff0019169055565b6000611408610ddf565b90508060011415611463576040805160e560020a62461bcd02815260206004820152601260248201527f497420697320636f6c64696e6720646f776e0000000000000000000000000000604482015290519081900360640190fd5b670de0b6b3a76400008206156114c3576040805160e560020a62461bcd02815260206004820152601260248201527f4d75737420696e70757420696e74656765720000000000000000000000000000604482015290519081900360640190fd5b6000821161151b576040805160e560020a62461bcd02815260206004820152601260248201527f4d757374206c6172676572207468616e20300000000000000000000000000000604482015290519081900360640190fd5b600f54604080517f70a0823100000000000000000000000000000000000000000000000000000000815233600482015290518492600160a060020a0316916370a08231916024808301926020929190829003018186803b15801561157e57600080fd5b505afa158015611592573d6000803e3d6000fd5b505050506040513d60208110156115a857600080fd5b5051336000908152601260209081526040808320546013909252909120540101101561161e576040805160e560020a62461bcd02815260206004820152601160248201527f417373657473206e6f7420656e6f756768000000000000000000000000000000604482015290519081900360640190fd5b3415611674576040805160e560020a62461bcd02815260206004820152601760248201527f506c6561736520646f206e6f742073656e642057414e2e000000000000000000604482015290519081900360640190fd5b8061168557611681610f01565b5060025b806002141561195357670de0b6b3a7640000600c54830310156116f2576040805160e560020a62461bcd02815260206004820152600d60248201527f507269636520746f6f206c6f7700000000000000000000000000000000000000604482015290519081900360640190fd5b336000908152601260205260409020548211611758576040805160e560020a62461bcd02815260206004820152601e60248201527f4e6577207072696365206d757374206c6172676572207468616e206f6c640000604482015290519081900360640190fd5b336000908152601260209081526040808320546013909252909120549083039081116117ad57336000908152601360205260409020546117989082611fd6565b3360009081526013602052604090205561184d565b600f54604080517f23b872dd000000000000000000000000000000000000000000000000000000008152336004820152306024820152604481018490529051600160a060020a03909216916323b872dd916064808201926020929091908290030181600087803b15801561182057600080fd5b505af1158015611834573d6000803e3d6000fd5b505050506040513d602081101561184a57600080fd5b50505b336000908152601260205260409020546118b157601180546001810182556000919091527f31ecc21a745e3968a04e9570e4425bc18fa8019c68028196b546d1669c200c6801805473ffffffffffffffffffffffffffffffffffffffff1916331790555b336000908152601260205260409020546118cb9082611f72565b33600081815260126020908152604091829020849055600c93909355600d8054600e805473ffffffffffffffffffffffffffffffffffffffff19908116600160a060020a03841617909155168317905543600a558051868152905191927ff1f17f1a9edc53df960a0bec0dc86cb2bf5606c7826b3b8e701e70c91c28aa2a92918290030190a2505b5050565b6005546101009004600160a060020a031690565b60048054604080516020601f60026000196101006001881615020190951694909404938401819004810282018101909252828152606093909290918301828280156108ff5780601f106108d4576101008083540402835291602001916108ff565b601054600160a060020a031681565b60085481565b600061091e6119ee611c81565b84610a76856040518060600160405280602581526020016123ab6025913960016000611a18611c81565b600160a060020a03908116825260208083019390935260409182016000908120918d16815292529020549190611ed8565b600061091e611a56611c81565b8484611d77565b600954611a6a9082611f72565b600955611a75610bf7565b600b55601054604080517f23b872dd000000000000000000000000000000000000000000000000000000008152336004820152306024820152604481018490529051600160a060020a03909216916323b872dd916064808201926020929091908290030181600087803b158015611aeb57600080fd5b505af1158015611aff573d6000803e3d6000fd5b505050506040513d6020811015611b1557600080fd5b50610efe90503382612117565b600c5481565b600160a060020a03918216600090815260016020908152604080832093909416825291909152205490565b611b5b611c81565b6005546101009004600160a060020a03908116911614611bc5576040805160e560020a62461bcd02815260206004820181905260248201527f4f776e61626c653a2063616c6c6572206973206e6f7420746865206f776e6572604482015290519081900360640190fd5b600160a060020a038116611c0d5760405160e560020a62461bcd0281526004018080602001828103825260268152602001806122876026913960400191505060405180910390fd5b600554604051600160a060020a0380841692610100900416907f8be0079c531659141344cd1fd0a4f28419497f9722a3daafe3b4186f6b6457e090600090a360058054600160a060020a039092166101000274ffffffffffffffffffffffffffffffffffffffff0019909216919091179055565b3390565b600160a060020a038316611ccd5760405160e560020a62461bcd0281526004018080602001828103825260248152602001806123876024913960400191505060405180910390fd5b600160a060020a038216611d155760405160e560020a62461bcd0281526004018080602001828103825260228152602001806122ad6022913960400191505060405180910390fd5b600160a060020a03808416600081815260016020908152604080832094871680845294825291829020859055815185815291517f8c5be1e5ebec7d5bd14f71427d1e84f3dd0314c0f7b2291e5b200ac8c7c3b9259281900390910190a3505050565b600160a060020a038316611dbf5760405160e560020a62461bcd0281526004018080602001828103825260258152602001806123626025913960400191505060405180910390fd5b600160a060020a038216611e075760405160e560020a62461bcd0281526004018080602001828103825260238152602001806122426023913960400191505060405180910390fd5b611e1283838361220a565b611e4f816040518060600160405280602681526020016122cf60269139600160a060020a0386166000908152602081905260409020549190611ed8565b600160a060020a038085166000908152602081905260408082209390935590841681522054611e7e9082611f72565b600160a060020a038084166000818152602081815260409182902094909455805185815290519193928716927fddf252ad1be2c89b69c2b068fc378daa952ba7f163c4a11628f55a4df523b3ef92918290030190a3505050565b60008184841115611f6a5760405160e560020a62461bcd0281526004018080602001828103825283818151815260200191508051906020019080838360005b83811015611f2f578181015183820152602001611f17565b50505050905090810190601f168015611f5c5780820380516001836020036101000a031916815260200191505b509250505060405180910390fd5b505050900390565b600082820183811015611fcf576040805160e560020a62461bcd02815260206004820152601b60248201527f536166654d6174683a206164646974696f6e206f766572666c6f770000000000604482015290519081900360640190fd5b9392505050565b6000611fcf83836040518060400160405280601e81526020017f536166654d6174683a207375627472616374696f6e206f766572666c6f770000815250611ed8565b600160a060020a0382166120605760405160e560020a62461bcd0281526004018080602001828103825260218152602001806123416021913960400191505060405180910390fd5b61206c8260008361220a565b6120a98160405180606001604052806022815260200161226560229139600160a060020a0385166000908152602081905260409020549190611ed8565b600160a060020a0383166000908152602081905260409020556002546120cf9082611fd6565b600255604080518281529051600091600160a060020a038516917fddf252ad1be2c89b69c2b068fc378daa952ba7f163c4a11628f55a4df523b3ef9181900360200190a35050565b600160a060020a038216612175576040805160e560020a62461bcd02815260206004820152601f60248201527f45524332303a206d696e7420746f20746865207a65726f206164647265737300604482015290519081900360640190fd5b6121816000838361220a565b60025461218e9082611f72565b600255600160a060020a0382166000908152602081905260409020546121b49082611f72565b600160a060020a0383166000818152602081815260408083209490945583518581529351929391927fddf252ad1be2c89b69c2b068fc378daa952ba7f163c4a11628f55a4df523b3ef9281900390910190a35050565b505050565b5080546000825590600052602060002090810190610efe91905b8082111561223d5760008155600101612229565b509056fe45524332303a207472616e7366657220746f20746865207a65726f206164647265737345524332303a206275726e20616d6f756e7420657863656564732062616c616e63654f776e61626c653a206e6577206f776e657220697320746865207a65726f206164647265737345524332303a20617070726f766520746f20746865207a65726f206164647265737345524332303a207472616e7366657220616d6f756e7420657863656564732062616c616e6365736574746c656d656e74206d757374207761697420666f72206269642066696e7369682e45524332303a207472616e7366657220616d6f756e74206578636565647320616c6c6f77616e636545524332303a206275726e2066726f6d20746865207a65726f206164647265737345524332303a207472616e736665722066726f6d20746865207a65726f206164647265737345524332303a20617070726f76652066726f6d20746865207a65726f206164647265737345524332303a2064656372656173656420616c6c6f77616e63652062656c6f77207a65726fa264697066735822122099bcb35d4f881b33fca7f9579920f29127ba8cc430b391f8cc174f42dcaed7f564736f6c634300060c0033",
  "immutableReferences": {},
  "source": "// SPDX-License-Identifier: MIT\n\npragma solidity 0.6.12;\n\nimport \"@openzeppelin/contracts/token/ERC20/ERC20.sol\";\nimport \"@openzeppelin/contracts/token/ERC20/IERC20.sol\";\nimport \"@openzeppelin/contracts/access/Ownable.sol\";\n\ncontract FunnyAuction is ERC20(\"Auction Liquidity Pool Token\", \"ALT\"), Ownable {\n    using SafeMath for uint256;\n\n    uint256 public highestValue;\n    uint256 public coldDownBlock;\n    uint256 public confirmBlock;\n\n    uint256 public liquidityPool;\n    uint256 public lastOfferBlock;\n    uint256 public currentGoodValue;\n    uint256 public currentBidPrice;\n    address payable public topPlayer;\n    address public secondPlayer;\n    address public waspToken;\n    address public goodsToken;\n\n    address[] public currentPlayers;\n\n    mapping(address => uint256) public bidMap;\n    mapping(address => uint256) public assetMap;\n\n    event Offer(address indexed user, uint256 value);\n\n    event Claim(address indexed user, uint256 value);\n\n    event Prize(address indexed user, uint256 value);\n\n    event Withdraw(address indexed user, uint256 value);\n\n    event GameFinish(address indexed top1, address indexed top2, uint256 prize);\n\n    /// @dev get current game status\n    /// 0:idle, 1:coldDown, 2:bidding\n    function getStatus() public view returns (uint256) {\n        uint256 past = block.number - lastOfferBlock;\n        if (past < confirmBlock) {\n            return 2;\n        }\n\n        if (past >= confirmBlock && past < (confirmBlock + coldDownBlock)) {\n            return 1;\n        }\n\n        return 0;\n    }\n\n    /// @dev offer a new price for goods.\n    function offer(uint256 value) external payable {\n        uint256 status = getStatus();\n        require(status != 1, \"It is colding down\");\n        require(value % 1 ether == 0, \"Must input integer\");\n        require(value > 0, \"Must larger than 0\");\n        require(\n            assetMap[msg.sender] + bidMap[msg.sender] + IERC20(waspToken).balanceOf(msg.sender) >= value,\n            \"Assets not enough\"\n        );\n        require(msg.value == 0, \"Please do not send WAN.\");\n\n        // last round finish\n        if (status == 0) {\n            settlement();\n            status = 2;\n        }\n\n        // biding\n        if (status == 2) {\n            require(value - currentBidPrice >= 1 ether, \"Price too low\");\n            require(\n                value > bidMap[msg.sender],\n                \"New price must larger than old\"\n            );\n            uint256 pay = value - bidMap[msg.sender];\n            // use wan from assets\n            if (assetMap[msg.sender] >= pay) {\n                assetMap[msg.sender] = assetMap[msg.sender].sub(pay);\n            } else {\n                IERC20(waspToken).transferFrom(msg.sender, address(this), pay);\n            }\n            \n            if (bidMap[msg.sender] == 0) {\n                currentPlayers.push(msg.sender);\n            }\n\n            bidMap[msg.sender] = bidMap[msg.sender].add(pay);\n            currentBidPrice = bidMap[msg.sender];\n            secondPlayer = topPlayer;\n            topPlayer = msg.sender;\n            lastOfferBlock = block.number;\n            emit Offer(msg.sender, value);\n        }\n    }\n\n    function calcGoodsValue() public view returns (uint256) {\n        if (liquidityPool >= highestValue) {\n            return highestValue;\n        }\n        return 0;\n    }\n\n    function getPlayersInfo()\n        public\n        view\n        returns (address[] memory, uint256[] memory)\n    {\n        address[] memory addrs = new address[](currentPlayers.length);\n        uint256[] memory bids = new uint256[](currentPlayers.length);\n\n        for (uint256 i = 0; i < currentPlayers.length; i++) {\n            addrs[i] = currentPlayers[i];\n            bids[i] = bidMap[currentPlayers[i]];\n        }\n\n        return (addrs, bids);\n    }\n\n    /// @dev claim user's wan back\n    function claim() external {\n        uint256 amount = assetMap[msg.sender];\n        assetMap[msg.sender] = 0;\n        if (amount > 0) {\n            IERC20(waspToken).transfer(msg.sender, amount);\n            emit Claim(msg.sender, amount);\n        }\n    }\n\n    /// @dev deposit wans get ALT (Auction Liquidity Pool Token)\n    // receive() external payable {\n    //     liquidityPool = liquidityPool.add(msg.value);\n    //     currentGoodValue = calcGoodsValue();\n    //     _mint(msg.sender, msg.value);\n    // }\n\n    function deposit(uint amount) external {\n        liquidityPool = liquidityPool.add(amount);\n        currentGoodValue = calcGoodsValue();\n        IERC20(goodsToken).transferFrom(msg.sender, address(this), amount);\n        _mint(msg.sender, amount);\n    }\n\n    /// @dev send ALT get wans back\n    function withdraw() external {\n        uint256 altBalance = balanceOf(msg.sender);\n        require(altBalance > 0, \"not enough ALT\");\n        uint256 payAmount = (liquidityPool * altBalance) / totalSupply();\n\n        liquidityPool = liquidityPool.sub(payAmount);\n        _burn(msg.sender, altBalance);\n        IERC20(goodsToken).transfer(msg.sender, payAmount);\n        emit Withdraw(msg.sender, payAmount);\n    }\n\n    function config(\n        uint256 _highestValue,\n        uint256 _coldDownBlock,\n        uint256 _confirmBlock,\n        address _waspToken,\n        address _goodsToken\n    ) external onlyOwner {\n        highestValue = _highestValue;\n        coldDownBlock = _coldDownBlock;\n        confirmBlock = _confirmBlock;\n        waspToken = _waspToken;\n        goodsToken = _goodsToken;\n    }\n\n    function settlement() public {\n        uint256 status = getStatus();\n        require(status == 0, \"settlement must wait for bid finsih.\");\n\n        for (uint256 i = 0; i < currentPlayers.length; i++) {\n            if (currentPlayers[i] == topPlayer) {\n                liquidityPool = liquidityPool.sub(currentGoodValue);\n                IERC20(waspToken).transfer(address(1), bidMap[topPlayer]); //burn;\n                bidMap[topPlayer] = 0;\n                IERC20(goodsToken).transfer(topPlayer, currentGoodValue);\n                emit Prize(topPlayer, currentGoodValue);\n                continue;\n            }\n\n            assetMap[currentPlayers[i]] = assetMap[currentPlayers[i]].add(\n                bidMap[currentPlayers[i]]\n            );\n            bidMap[currentPlayers[i]] = 0;\n        }\n        // clear players\n        delete currentPlayers;\n        emit GameFinish(topPlayer, secondPlayer, currentGoodValue);\n        topPlayer = address(0);\n        secondPlayer = address(0);\n        currentBidPrice = 0;\n        currentGoodValue = calcGoodsValue();\n    }\n}\n",
  "sourcePath": "/Users/molin/workspace/dapp/funny-auction/funny-auction-contracts/contracts/FunnyAuction.sol",
  "compiler": {
    "name": "solc",
    "version": "0.6.12+commit.27d51765.Emscripten.clang"
  },
  "schemaVersion": "3.1.0",
  "updatedAt": "2020-12-17T01:41:07.342Z",
  "devdoc": {
    "kind": "dev",
    "methods": {
      "allowance(address,address)": {
        "details": "See {IERC20-allowance}."
      },
      "approve(address,uint256)": {
        "details": "See {IERC20-approve}. Requirements: - `spender` cannot be the zero address."
      },
      "balanceOf(address)": {
        "details": "See {IERC20-balanceOf}."
      },
      "claim()": {
        "details": "claim user's wan back"
      },
      "decimals()": {
        "details": "Returns the number of decimals used to get its user representation. For example, if `decimals` equals `2`, a balance of `505` tokens should be displayed to a user as `5,05` (`505 / 10 ** 2`). Tokens usually opt for a value of 18, imitating the relationship between Ether and Wei. This is the value {ERC20} uses, unless {_setupDecimals} is called. NOTE: This information is only used for _display_ purposes: it in no way affects any of the arithmetic of the contract, including {IERC20-balanceOf} and {IERC20-transfer}."
      },
      "decreaseAllowance(address,uint256)": {
        "details": "Atomically decreases the allowance granted to `spender` by the caller. This is an alternative to {approve} that can be used as a mitigation for problems described in {IERC20-approve}. Emits an {Approval} event indicating the updated allowance. Requirements: - `spender` cannot be the zero address. - `spender` must have allowance for the caller of at least `subtractedValue`."
      },
      "deposit(uint256)": {
        "details": "deposit wans get ALT (Auction Liquidity Pool Token)"
      },
      "getStatus()": {
        "details": "get current game status 0:idle, 1:coldDown, 2:bidding"
      },
      "increaseAllowance(address,uint256)": {
        "details": "Atomically increases the allowance granted to `spender` by the caller. This is an alternative to {approve} that can be used as a mitigation for problems described in {IERC20-approve}. Emits an {Approval} event indicating the updated allowance. Requirements: - `spender` cannot be the zero address."
      },
      "name()": {
        "details": "Returns the name of the token."
      },
      "offer(uint256)": {
        "details": "offer a new price for goods."
      },
      "owner()": {
        "details": "Returns the address of the current owner."
      },
      "renounceOwnership()": {
        "details": "Leaves the contract without owner. It will not be possible to call `onlyOwner` functions anymore. Can only be called by the current owner. NOTE: Renouncing ownership will leave the contract without an owner, thereby removing any functionality that is only available to the owner."
      },
      "symbol()": {
        "details": "Returns the symbol of the token, usually a shorter version of the name."
      },
      "totalSupply()": {
        "details": "See {IERC20-totalSupply}."
      },
      "transfer(address,uint256)": {
        "details": "See {IERC20-transfer}. Requirements: - `recipient` cannot be the zero address. - the caller must have a balance of at least `amount`."
      },
      "transferFrom(address,address,uint256)": {
        "details": "See {IERC20-transferFrom}. Emits an {Approval} event indicating the updated allowance. This is not required by the EIP. See the note at the beginning of {ERC20}; Requirements: - `sender` and `recipient` cannot be the zero address. - `sender` must have a balance of at least `amount`. - the caller must have allowance for ``sender``'s tokens of at least `amount`."
      },
      "transferOwnership(address)": {
        "details": "Transfers ownership of the contract to a new account (`newOwner`). Can only be called by the current owner."
      },
      "withdraw()": {
        "details": "send ALT get wans back"
      }
    },
    "version": 1
  },
  "userdoc": {
    "kind": "user",
    "methods": {},
    "version": 1
  }
}